:060000000A128A1180289B
:10000800F000030EF10003138312D93081000B11A5
:0C001800FE20710E8300F00E700E090037
:100100008E20A420AB20B820BE20CC20D5202018E3
:100110008C28DE20E420EC20F420842803178316AA
:10012000880189010313831685010614861487014B
:10013000880103138312850106108610FF308700A3
:100140000814881408150800031383160F100F17DE
:100150008F160F12080003138316811281110115E7
:100160008114011403138312D93081000B1108008C
:10017000031383128B178B160B110800A001A1012A
:10018000A201A301A4010800061CC428850A0800D6
:10019000861CC8288503080003138312061CC4208C
:1001A000861CC8200508A1000800A108031DDD2841
:1001B000A00A0030A200A300A40008006430A1023D
:1001C000031C0800A20ADF286430A1070A30A1023C
:1001D000031C0800A30AE7280A30A1070130A10286
:1001E000031C0800A40AEF2824080022A800230802
:1001F0000022A90022080022AA0008000730880077
:1002000025180D29261814292718062928088700DB
:1002100008112514261027100800290887008810C7
:1002200026142510271008002A0887000810271414
:0602300025102610080055
:100400008A018A148207C034F934A434B034993490
:1004100092348234F8348034903488348334C6344F
:06042000A13486348E3485
:04400E00C430FF3F7C
:00000001FF
